{
	"data": {
		"bytecode": {
			"linkReferences": {},
			"object": "608060405234801561001057600080fd5b50610e5a806100206000396000f3fe608060405234801561001057600080fd5b50600436106100f55760003560e01c80639d3b7cc911610097578063d3893c9a11610066578063d3893c9a14610264578063e1312e961461026d578063f260ead714610280578063f2b2dd47146102a057600080fd5b80639d3b7cc9146101ce578063a1fae40614610212578063baa0c3eb14610225578063cfec0b161461025157600080fd5b80634d5f8fa8116100d35780634d5f8fa8146101755780635a0c948e1461019557806374e7493b146101a8578063890bbbc1146101bb57600080fd5b8063033421b1146100fa57806306ee80ac1461010f5780631fae28b71461012b575b600080fd5b61010d610108366004610bb2565b6102c3565b005b61011860005481565b6040519081526020015b60405180910390f35b61015a610139366004610bde565b60036020526000908152604090208054600182015460029092015490919083565b60408051938452602084019290925290820152606001610122565b610188610183366004610bf7565b610322565b6040516101229190610c72565b61010d6101a3366004610bde565b6103bd565b61010d6101b6366004610bde565b600155565b6101886101c9366004610bf7565b610502565b6101fa6101dc366004610bf7565b6002602052600090815260409020600101546001600160a01b031681565b6040516001600160a01b039091168152602001610122565b61010d610220366004610c85565b61059b565b6101fa610233366004610bf7565b6004602052600090815260409020600101546001600160a01b031681565b61010d61025f366004610bb2565b61067a565b61011860015481565b61010d61027b366004610c85565b610722565b61029361028e366004610bde565b6107a4565b6040516101229190610cf3565b6102b36102ae366004610bde565b6108ce565b6040519015158152602001610122565b60008281526003602052604090206102de9060040133610979565b5060008281526003602081905260409091206102fb910182610979565b50600082815260036020526040812060010180549161031983610d69565b91905055505050565b6040805180820182526060808252600060208084018290526001600160a01b038616825260028152908490208451815492830281018401865294850182815293949390928492849184018282801561039957602002820191906000526020600020905b815481526020019060010190808311610385575b5050509183525050600191909101546001600160a01b031660209091015292915050565b60008181526003602052604090206001810154600290910154801561043c576000600154836103ec9190610d80565b905081811161043a5760405162461bcd60e51b815260206004820152601560248201527415d85c99195b88131a5b5a5d08115e18d959591959605a1b60448201526064015b60405180910390fd5b505b6000838152600360208181526040808420808401805460018082018355918752848720018054336001600160a01b03199182168117909255818852600486529387208083018054909516909117909355825490810183559185528285209091018790558684529190526002018054916104b483610da2565b90915550506000838152600360209081526040822060040180546001810182559083529082200180546001600160a01b03191633179055805490806104f883610da2565b9190505550505050565b6040805180820182526060808252600060208084018290526001600160a01b03861682526004815290849020845181549283028101840186529485018281529394939092849284918401828280156103995760200282019190600052602060002090815481526020019060010190808311610385575050509183525050600191909101546001600160a01b031660209091015292915050565b600081815260036020526040902060018101546002909101548015610615576000600154836105ca9190610d80565b90508181116106135760405162461bcd60e51b815260206004820152601560248201527415d85c99195b88131a5b5a5d08115e18d959591959605a1b6044820152606401610431565b505b6001600160a01b0384166000908152600460209081526040808320600180820180546001600160a01b0319163317905581549081018255908452828420018690558583526003909152812060020180549161066f83610da2565b919050555050505050565b6001600160a01b0381166000908152600460205260409020546106df5760405162461bcd60e51b815260206004820152601160248201527f49742773204e6f7420612057617264656e0000000000000000000000000000006044820152606401610431565b6001600160a01b03811660009081526004602052604090206107019083610ab5565b50600082815260036020526040902061071d9060040182610979565b505050565b6001600160a01b0382166000818152600260209081526040808320600180820180546001600160a01b031990811633179091558254808301845592865284862090920187905586855260038085529285209283018054808301825590865293852090930180549091169094179093558382529190910180549161031983610da2565b6107d66040518060a0016040528060008152602001600081526020016000815260200160608152602001606081525090565b600082815260036020818152604092839020835160a08101855281548152600182015481840152600282015481860152928101805485518185028101850190965280865293949193606086019383018282801561085c57602002820191906000526020600020905b81546001600160a01b0316815260019091019060200180831161083e575b50505050508152602001600482018054806020026020016040519081016040528092919081815260200182805480156108be57602002820191906000526020600020905b81546001600160a01b031681526001909101906020018083116108a0575b5050505050815250509050919050565b60008181526003602052604081206001810154600290910154801561096d576000816001546108fd9190610dbb565b905082811161096257600085815260036020819052604082200180549190610926600184610dd2565b8154811061093657610936610de5565b6000918252602090912001546001600160a01b03169050610957878261067a565b600195505050610967565b600093505b50610972565b600092505b5050919050565b6000805b8354811015610aa957826001600160a01b03168482815481106109a2576109a2610de5565b6000918252602090912001546001600160a01b031603610a9757805b84546109cc90600190610dd2565b811015610a5a57846109df826001610dfb565b815481106109ef576109ef610de5565b9060005260206000200160009054906101000a90046001600160a01b0316858281548110610a1f57610a1f610de5565b600091825260209091200180546001600160a01b0319166001600160a01b039290921691909117905580610a5281610da2565b9150506109be565b5083805480610a6b57610a6b610e0e565b600082815260209020810160001990810180546001600160a01b03191690550190555060019050610aaf565b80610aa181610da2565b91505061097d565b50600090505b92915050565b6000805b8354811015610aa95782848281548110610ad557610ad5610de5565b906000526020600020015403610b8457805b8454610af590600190610dd2565b811015610b535784610b08826001610dfb565b81548110610b1857610b18610de5565b9060005260206000200154858281548110610b3557610b35610de5565b60009182526020909120015580610b4b81610da2565b915050610ae7565b5083805480610b6457610b64610e0e565b600190038181906000526020600020016000905590556001915050610aaf565b80610b8e81610da2565b915050610ab9565b80356001600160a01b0381168114610bad57600080fd5b919050565b60008060408385031215610bc557600080fd5b82359150610bd560208401610b96565b90509250929050565b600060208284031215610bf057600080fd5b5035919050565b600060208284031215610c0957600080fd5b610c1282610b96565b9392505050565b805160408084528151908401819052600091602091908201906060860190845b81811015610c5557835183529284019291840191600101610c39565b5050938201516001600160a01b0316949091019390935250919050565b602081526000610c126020830184610c19565b60008060408385031215610c9857600080fd5b610ca183610b96565b946020939093013593505050565b600081518084526020808501945080840160005b83811015610ce85781516001600160a01b031687529582019590820190600101610cc3565b509495945050505050565b602081528151602082015260208201516040820152604082015160608201526000606083015160a06080840152610d2d60c0840182610caf565b90506080840151601f198483030160a0850152610d4a8282610caf565b95945050505050565b634e487b7160e01b600052601160045260246000fd5b600081610d7857610d78610d53565b506000190190565b600082610d9d57634e487b7160e01b600052601260045260246000fd5b500490565b600060018201610db457610db4610d53565b5060010190565b8082028115828204841417610aaf57610aaf610d53565b81810381811115610aaf57610aaf610d53565b634e487b7160e01b600052603260045260246000fd5b80820180821115610aaf57610aaf610d53565b634e487b7160e01b600052603160045260246000fdfea2646970667358221220c49cc91fbbe2e9361ed1915cdb6c35d16dcd245510904667090de7541e3510b164736f6c63430008110033",
			"opcodes": "PUSH1 0x80 PUSH1 0x40 MSTORE CALLVALUE DUP1 ISZERO PUSH2 0x10 JUMPI PUSH1 0x0 DUP1 REVERT JUMPDEST POP PUSH2 0xE5A DUP1 PUSH2 0x20 PUSH1 0x0 CODECOPY PUSH1 0x0 RETURN INVALID PUSH1 0x80 PUSH1 0x40 MSTORE CALLVALUE DUP1 ISZERO PUSH2 0x10 JUMPI PUSH1 0x0 DUP1 REVERT JUMPDEST POP PUSH1 0x4 CALLDATASIZE LT PUSH2 0xF5 JUMPI PUSH1 0x0 CALLDATALOAD PUSH1 0xE0 SHR DUP1 PUSH4 0x9D3B7CC9 GT PUSH2 0x97 JUMPI DUP1 PUSH4 0xD3893C9A GT PUSH2 0x66 JUMPI DUP1 PUSH4 0xD3893C9A EQ PUSH2 0x264 JUMPI DUP1 PUSH4 0xE1312E96 EQ PUSH2 0x26D JUMPI DUP1 PUSH4 0xF260EAD7 EQ PUSH2 0x280 JUMPI DUP1 PUSH4 0xF2B2DD47 EQ PUSH2 0x2A0 JUMPI PUSH1 0x0 DUP1 REVERT JUMPDEST DUP1 PUSH4 0x9D3B7CC9 EQ PUSH2 0x1CE JUMPI DUP1 PUSH4 0xA1FAE406 EQ PUSH2 0x212 JUMPI DUP1 PUSH4 0xBAA0C3EB EQ PUSH2 0x225 JUMPI DUP1 PUSH4 0xCFEC0B16 EQ PUSH2 0x251 JUMPI PUSH1 0x0 DUP1 REVERT JUMPDEST DUP1 PUSH4 0x4D5F8FA8 GT PUSH2 0xD3 JUMPI DUP1 PUSH4 0x4D5F8FA8 EQ PUSH2 0x175 JUMPI DUP1 PUSH4 0x5A0C948E EQ PUSH2 0x195 JUMPI DUP1 PUSH4 0x74E7493B EQ PUSH2 0x1A8 JUMPI DUP1 PUSH4 0x890BBBC1 EQ PUSH2 0x1BB JUMPI PUSH1 0x0 DUP1 REVERT JUMPDEST DUP1 PUSH4 0x33421B1 EQ PUSH2 0xFA JUMPI DUP1 PUSH4 0x6EE80AC EQ PUSH2 0x10F JUMPI DUP1 PUSH4 0x1FAE28B7 EQ PUSH2 0x12B JUMPI JUMPDEST PUSH1 0x0 DUP1 REVERT JUMPDEST PUSH2 0x10D PUSH2 0x108 CALLDATASIZE PUSH1 0x4 PUSH2 0xBB2 JUMP JUMPDEST PUSH2 0x2C3 JUMP JUMPDEST STOP JUMPDEST PUSH2 0x118 PUSH1 0x0 SLOAD DUP2 JUMP JUMPDEST PUSH1 0x40 MLOAD SWAP1 DUP2 MSTORE PUSH1 0x20 ADD JUMPDEST PUSH1 0x40 MLOAD DUP1 SWAP2 SUB SWAP1 RETURN JUMPDEST PUSH2 0x15A PUSH2 0x139 CALLDATASIZE PUSH1 0x4 PUSH2 0xBDE JUMP JUMPDEST PUSH1 0x3 PUSH1 0x20 MSTORE PUSH1 0x0 SWAP1 DUP2 MSTORE PUSH1 0x40 SWAP1 KECCAK256 DUP1 SLOAD PUSH1 0x1 DUP3 ADD SLOAD PUSH1 0x2 SWAP1 SWAP3 ADD SLOAD SWAP1 SWAP2 SWAP1 DUP4 JUMP JUMPDEST PUSH1 0x40 DUP1 MLOAD SWAP4 DUP5 MSTORE PUSH1 0x20 DUP5 ADD SWAP3 SWAP1 SWAP3 MSTORE SWAP1 DUP3 ADD MSTORE PUSH1 0x60 ADD PUSH2 0x122 JUMP JUMPDEST PUSH2 0x188 PUSH2 0x183 CALLDATASIZE PUSH1 0x4 PUSH2 0xBF7 JUMP JUMPDEST PUSH2 0x322 JUMP JUMPDEST PUSH1 0x40 MLOAD PUSH2 0x122 SWAP2 SWAP1 PUSH2 0xC72 JUMP JUMPDEST PUSH2 0x10D PUSH2 0x1A3 CALLDATASIZE PUSH1 0x4 PUSH2 0xBDE JUMP JUMPDEST PUSH2 0x3BD JUMP JUMPDEST PUSH2 0x10D PUSH2 0x1B6 CALLDATASIZE PUSH1 0x4 PUSH2 0xBDE JUMP JUMPDEST PUSH1 0x1 SSTORE JUMP JUMPDEST PUSH2 0x188 PUSH2 0x1C9 CALLDATASIZE PUSH1 0x4 PUSH2 0xBF7 JUMP JUMPDEST PUSH2 0x502 JUMP JUMPDEST PUSH2 0x1FA PUSH2 0x1DC CALLDATASIZE PUSH1 0x4 PUSH2 0xBF7 JUMP JUMPDEST PUSH1 0x2 PUSH1 0x20 MSTORE PUSH1 0x0 SWAP1 DUP2 MSTORE PUSH1 0x40 SWAP1 KECCAK256 PUSH1 0x1 ADD SLOAD PUSH1 0x1 PUSH1 0x1 PUSH1 0xA0 SHL SUB AND DUP2 JUMP JUMPDEST PUSH1 0x40 MLOAD PUSH1 0x1 PUSH1 0x1 PUSH1 0xA0 SHL SUB SWAP1 SWAP2 AND DUP2 MSTORE PUSH1 0x20 ADD PUSH2 0x122 JUMP JUMPDEST PUSH2 0x10D PUSH2 0x220 CALLDATASIZE PUSH1 0x4 PUSH2 0xC85 JUMP JUMPDEST PUSH2 0x59B JUMP JUMPDEST PUSH2 0x1FA PUSH2 0x233 CALLDATASIZE PUSH1 0x4 PUSH2 0xBF7 JUMP JUMPDEST PUSH1 0x4 PUSH1 0x20 MSTORE PUSH1 0x0 SWAP1 DUP2 MSTORE PUSH1 0x40 SWAP1 KECCAK256 PUSH1 0x1 ADD SLOAD PUSH1 0x1 PUSH1 0x1 PUSH1 0xA0 SHL SUB AND DUP2 JUMP JUMPDEST PUSH2 0x10D PUSH2 0x25F CALLDATASIZE PUSH1 0x4 PUSH2 0xBB2 JUMP JUMPDEST PUSH2 0x67A JUMP JUMPDEST PUSH2 0x118 PUSH1 0x1 SLOAD DUP2 JUMP JUMPDEST PUSH2 0x10D PUSH2 0x27B CALLDATASIZE PUSH1 0x4 PUSH2 0xC85 JUMP JUMPDEST PUSH2 0x722 JUMP JUMPDEST PUSH2 0x293 PUSH2 0x28E CALLDATASIZE PUSH1 0x4 PUSH2 0xBDE JUMP JUMPDEST PUSH2 0x7A4 JUMP JUMPDEST PUSH1 0x40 MLOAD PUSH2 0x122 SWAP2 SWAP1 PUSH2 0xCF3 JUMP JUMPDEST PUSH2 0x2B3 PUSH2 0x2AE CALLDATASIZE PUSH1 0x4 PUSH2 0xBDE JUMP JUMPDEST PUSH2 0x8CE JUMP JUMPDEST PUSH1 0x40 MLOAD SWAP1 ISZERO ISZERO DUP2 MSTORE PUSH1 0x20 ADD PUSH2 0x122 JUMP JUMPDEST PUSH1 0x0 DUP3 DUP2 MSTORE PUSH1 0x3 PUSH1 0x20 MSTORE PUSH1 0x40 SWAP1 KECCAK256 PUSH2 0x2DE SWAP1 PUSH1 0x4 ADD CALLER PUSH2 0x979 JUMP JUMPDEST POP PUSH1 0x0 DUP3 DUP2 MSTORE PUSH1 0x3 PUSH1 0x20 DUP2 SWAP1 MSTORE PUSH1 0x40 SWAP1 SWAP2 KECCAK256 PUSH2 0x2FB SWAP2 ADD DUP3 PUSH2 0x979 JUMP JUMPDEST POP PUSH1 0x0 DUP3 DUP2 MSTORE PUSH1 0x3 PUSH1 0x20 MSTORE PUSH1 0x40 DUP2 KECCAK256 PUSH1 0x1 ADD DUP1 SLOAD SWAP2 PUSH2 0x319 DUP4 PUSH2 0xD69 JUMP JUMPDEST SWAP2 SWAP1 POP SSTORE POP POP POP JUMP JUMPDEST PUSH1 0x40 DUP1 MLOAD DUP1 DUP3 ADD DUP3 MSTORE PUSH1 0x60 DUP1 DUP3 MSTORE PUSH1 0x0 PUSH1 0x20 DUP1 DUP5 ADD DUP3 SWAP1 MSTORE PUSH1 0x1 PUSH1 0x1 PUSH1 0xA0 SHL SUB DUP7 AND DUP3 MSTORE PUSH1 0x2 DUP2 MSTORE SWAP1 DUP5 SWAP1 KECCAK256 DUP5 MLOAD DUP2 SLOAD SWAP3 DUP4 MUL DUP2 ADD DUP5 ADD DUP7 MSTORE SWAP5 DUP6 ADD DUP3 DUP2 MSTORE SWAP4 SWAP5 SWAP4 SWAP1 SWAP3 DUP5 SWAP3 DUP5 SWAP2 DUP5 ADD DUP3 DUP3 DUP1 ISZERO PUSH2 0x399 JUMPI PUSH1 0x20 MUL DUP3 ADD SWAP2 SWAP1 PUSH1 0x0 MSTORE PUSH1 0x20 PUSH1 0x0 KECCAK256 SWAP1 JUMPDEST DUP2 SLOAD DUP2 MSTORE PUSH1 0x20 ADD SWAP1 PUSH1 0x1 ADD SWAP1 DUP1 DUP4 GT PUSH2 0x385 JUMPI JUMPDEST POP POP POP SWAP2 DUP4 MSTORE POP POP PUSH1 0x1 SWAP2 SWAP1 SWAP2 ADD SLOAD PUSH1 0x1 PUSH1 0x1 PUSH1 0xA0 SHL SUB AND PUSH1 0x20 SWAP1 SWAP2 ADD MSTORE SWAP3 SWAP2 POP POP JUMP JUMPDEST PUSH1 0x0 DUP2 DUP2 MSTORE PUSH1 0x3 PUSH1 0x20 MSTORE PUSH1 0x40 SWAP1 KECCAK256 PUSH1 0x1 DUP2 ADD SLOAD PUSH1 0x2 SWAP1 SWAP2 ADD SLOAD DUP1 ISZERO PUSH2 0x43C JUMPI PUSH1 0x0 PUSH1 0x1 SLOAD DUP4 PUSH2 0x3EC SWAP2 SWAP1 PUSH2 0xD80 JUMP JUMPDEST SWAP1 POP DUP2 DUP2 GT PUSH2 0x43A JUMPI PUSH1 0x40 MLOAD PUSH3 0x461BCD PUSH1 0xE5 SHL DUP2 MSTORE PUSH1 0x20 PUSH1 0x4 DUP3 ADD MSTORE PUSH1 0x15 PUSH1 0x24 DUP3 ADD MSTORE PUSH21 0x15D85C99195B88131A5B5A5D08115E18D959591959 PUSH1 0x5A SHL PUSH1 0x44 DUP3 ADD MSTORE PUSH1 0x64 ADD JUMPDEST PUSH1 0x40 MLOAD DUP1 SWAP2 SUB SWAP1 REVERT JUMPDEST POP JUMPDEST PUSH1 0x0 DUP4 DUP2 MSTORE PUSH1 0x3 PUSH1 0x20 DUP2 DUP2 MSTORE PUSH1 0x40 DUP1 DUP5 KECCAK256 DUP1 DUP5 ADD DUP1 SLOAD PUSH1 0x1 DUP1 DUP3 ADD DUP4 SSTORE SWAP2 DUP8 MSTORE DUP5 DUP8 KECCAK256 ADD DUP1 SLOAD CALLER PUSH1 0x1 PUSH1 0x1 PUSH1 0xA0 SHL SUB NOT SWAP2 DUP3 AND DUP2 OR SWAP1 SWAP3 SSTORE DUP2 DUP9 MSTORE PUSH1 0x4 DUP7 MSTORE SWAP4 DUP8 KECCAK256 DUP1 DUP4 ADD DUP1 SLOAD SWAP1 SWAP6 AND SWAP1 SWAP2 OR SWAP1 SWAP4 SSTORE DUP3 SLOAD SWAP1 DUP2 ADD DUP4 SSTORE SWAP2 DUP6 MSTORE DUP3 DUP6 KECCAK256 SWAP1 SWAP2 ADD DUP8 SWAP1 SSTORE DUP7 DUP5 MSTORE SWAP2 SWAP1 MSTORE PUSH1 0x2 ADD DUP1 SLOAD SWAP2 PUSH2 0x4B4 DUP4 PUSH2 0xDA2 JUMP JUMPDEST SWAP1 SWAP2 SSTORE POP POP PUSH1 0x0 DUP4 DUP2 MSTORE PUSH1 0x3 PUSH1 0x20 SWAP1 DUP2 MSTORE PUSH1 0x40 DUP3 KECCAK256 PUSH1 0x4 ADD DUP1 SLOAD PUSH1 0x1 DUP2 ADD DUP3 SSTORE SWAP1 DUP4 MSTORE SWAP1 DUP3 KECCAK256 ADD DUP1 SLOAD PUSH1 0x1 PUSH1 0x1 PUSH1 0xA0 SHL SUB NOT AND CALLER OR SWAP1 SSTORE DUP1 SLOAD SWAP1 DUP1 PUSH2 0x4F8 DUP4 PUSH2 0xDA2 JUMP JUMPDEST SWAP2 SWAP1 POP SSTORE POP POP POP POP JUMP JUMPDEST PUSH1 0x40 DUP1 MLOAD DUP1 DUP3 ADD DUP3 MSTORE PUSH1 0x60 DUP1 DUP3 MSTORE PUSH1 0x0 PUSH1 0x20 DUP1 DUP5 ADD DUP3 SWAP1 MSTORE PUSH1 0x1 PUSH1 0x1 PUSH1 0xA0 SHL SUB DUP7 AND DUP3 MSTORE PUSH1 0x4 DUP2 MSTORE SWAP1 DUP5 SWAP1 KECCAK256 DUP5 MLOAD DUP2 SLOAD SWAP3 DUP4 MUL DUP2 ADD DUP5 ADD DUP7 MSTORE SWAP5 DUP6 ADD DUP3 DUP2 MSTORE SWAP4 SWAP5 SWAP4 SWAP1 SWAP3 DUP5 SWAP3 DUP5 SWAP2 DUP5 ADD DUP3 DUP3 DUP1 ISZERO PUSH2 0x399 JUMPI PUSH1 0x20 MUL DUP3 ADD SWAP2 SWAP1 PUSH1 0x0 MSTORE PUSH1 0x20 PUSH1 0x0 KECCAK256 SWAP1 DUP2 SLOAD DUP2 MSTORE PUSH1 0x20 ADD SWAP1 PUSH1 0x1 ADD SWAP1 DUP1 DUP4 GT PUSH2 0x385 JUMPI POP POP POP SWAP2 DUP4 MSTORE POP POP PUSH1 0x1 SWAP2 SWAP1 SWAP2 ADD SLOAD PUSH1 0x1 PUSH1 0x1 PUSH1 0xA0 SHL SUB AND PUSH1 0x20 SWAP1 SWAP2 ADD MSTORE SWAP3 SWAP2 POP POP JUMP JUMPDEST PUSH1 0x0 DUP2 DUP2 MSTORE PUSH1 0x3 PUSH1 0x20 MSTORE PUSH1 0x40 SWAP1 KECCAK256 PUSH1 0x1 DUP2 ADD SLOAD PUSH1 0x2 SWAP1 SWAP2 ADD SLOAD DUP1 ISZERO PUSH2 0x615 JUMPI PUSH1 0x0 PUSH1 0x1 SLOAD DUP4 PUSH2 0x5CA SWAP2 SWAP1 PUSH2 0xD80 JUMP JUMPDEST SWAP1 POP DUP2 DUP2 GT PUSH2 0x613 JUMPI PUSH1 0x40 MLOAD PUSH3 0x461BCD PUSH1 0xE5 SHL DUP2 MSTORE PUSH1 0x20 PUSH1 0x4 DUP3 ADD MSTORE PUSH1 0x15 PUSH1 0x24 DUP3 ADD MSTORE PUSH21 0x15D85C99195B88131A5B5A5D08115E18D959591959 PUSH1 0x5A SHL PUSH1 0x44 DUP3 ADD MSTORE PUSH1 0x64 ADD PUSH2 0x431 JUMP JUMPDEST POP JUMPDEST PUSH1 0x1 PUSH1 0x1 PUSH1 0xA0 SHL SUB DUP5 AND PUSH1 0x0 SWAP1 DUP2 MSTORE PUSH1 0x4 PUSH1 0x20 SWAP1 DUP2 MSTORE PUSH1 0x40 DUP1 DUP4 KECCAK256 PUSH1 0x1 DUP1 DUP3 ADD DUP1 SLOAD PUSH1 0x1 PUSH1 0x1 PUSH1 0xA0 SHL SUB NOT AND CALLER OR SWAP1 SSTORE DUP2 SLOAD SWAP1 DUP2 ADD DUP3 SSTORE SWAP1 DUP5 MSTORE DUP3 DUP5 KECCAK256 ADD DUP7 SWAP1 SSTORE DUP6 DUP4 MSTORE PUSH1 0x3 SWAP1 SWAP2 MSTORE DUP2 KECCAK256 PUSH1 0x2 ADD DUP1 SLOAD SWAP2 PUSH2 0x66F DUP4 PUSH2 0xDA2 JUMP JUMPDEST SWAP2 SWAP1 POP SSTORE POP POP POP POP POP JUMP JUMPDEST PUSH1 0x1 PUSH1 0x1 PUSH1 0xA0 SHL SUB DUP2 AND PUSH1 0x0 SWAP1 DUP2 MSTORE PUSH1 0x4 PUSH1 0x20 MSTORE PUSH1 0x40 SWAP1 KECCAK256 SLOAD PUSH2 0x6DF JUMPI PUSH1 0x40 MLOAD PUSH3 0x461BCD PUSH1 0xE5 SHL DUP2 MSTORE PUSH1 0x20 PUSH1 0x4 DUP3 ADD MSTORE PUSH1 0x11 PUSH1 0x24 DUP3 ADD MSTORE PUSH32 0x49742773204E6F7420612057617264656E000000000000000000000000000000 PUSH1 0x44 DUP3 ADD MSTORE PUSH1 0x64 ADD PUSH2 0x431 JUMP JUMPDEST PUSH1 0x1 PUSH1 0x1 PUSH1 0xA0 SHL SUB DUP2 AND PUSH1 0x0 SWAP1 DUP2 MSTORE PUSH1 0x4 PUSH1 0x20 MSTORE PUSH1 0x40 SWAP1 KECCAK256 PUSH2 0x701 SWAP1 DUP4 PUSH2 0xAB5 JUMP JUMPDEST POP PUSH1 0x0 DUP3 DUP2 MSTORE PUSH1 0x3 PUSH1 0x20 MSTORE PUSH1 0x40 SWAP1 KECCAK256 PUSH2 0x71D SWAP1 PUSH1 0x4 ADD DUP3 PUSH2 0x979 JUMP JUMPDEST POP POP POP JUMP JUMPDEST PUSH1 0x1 PUSH1 0x1 PUSH1 0xA0 SHL SUB DUP3 AND PUSH1 0x0 DUP2 DUP2 MSTORE PUSH1 0x2 PUSH1 0x20 SWAP1 DUP2 MSTORE PUSH1 0x40 DUP1 DUP4 KECCAK256 PUSH1 0x1 DUP1 DUP3 ADD DUP1 SLOAD PUSH1 0x1 PUSH1 0x1 PUSH1 0xA0 SHL SUB NOT SWAP1 DUP2 AND CALLER OR SWAP1 SWAP2 SSTORE DUP3 SLOAD DUP1 DUP4 ADD DUP5 SSTORE SWAP3 DUP7 MSTORE DUP5 DUP7 KECCAK256 SWAP1 SWAP3 ADD DUP8 SWAP1 SSTORE DUP7 DUP6 MSTORE PUSH1 0x3 DUP1 DUP6 MSTORE SWAP3 DUP6 KECCAK256 SWAP3 DUP4 ADD DUP1 SLOAD DUP1 DUP4 ADD DUP3 SSTORE SWAP1 DUP7 MSTORE SWAP4 DUP6 KECCAK256 SWAP1 SWAP4 ADD DUP1 SLOAD SWAP1 SWAP2 AND SWAP1 SWAP5 OR SWAP1 SWAP4 SSTORE DUP4 DUP3 MSTORE SWAP2 SWAP1 SWAP2 ADD DUP1 SLOAD SWAP2 PUSH2 0x319 DUP4 PUSH2 0xDA2 JUMP JUMPDEST PUSH2 0x7D6 PUSH1 0x40 MLOAD DUP1 PUSH1 0xA0 ADD PUSH1 0x40 MSTORE DUP1 PUSH1 0x0 DUP2 MSTORE PUSH1 0x20 ADD PUSH1 0x0 DUP2 MSTORE PUSH1 0x20 ADD PUSH1 0x0 DUP2 MSTORE PUSH1 0x20 ADD PUSH1 0x60 DUP2 MSTORE PUSH1 0x20 ADD PUSH1 0x60 DUP2 MSTORE POP SWAP1 JUMP JUMPDEST PUSH1 0x0 DUP3 DUP2 MSTORE PUSH1 0x3 PUSH1 0x20 DUP2 DUP2 MSTORE PUSH1 0x40 SWAP3 DUP4 SWAP1 KECCAK256 DUP4 MLOAD PUSH1 0xA0 DUP2 ADD DUP6 MSTORE DUP2 SLOAD DUP2 MSTORE PUSH1 0x1 DUP3 ADD SLOAD DUP2 DUP5 ADD MSTORE PUSH1 0x2 DUP3 ADD SLOAD DUP2 DUP7 ADD MSTORE SWAP3 DUP2 ADD DUP1 SLOAD DUP6 MLOAD DUP2 DUP6 MUL DUP2 ADD DUP6 ADD SWAP1 SWAP7 MSTORE DUP1 DUP7 MSTORE SWAP4 SWAP5 SWAP2 SWAP4 PUSH1 0x60 DUP7 ADD SWAP4 DUP4 ADD DUP3 DUP3 DUP1 ISZERO PUSH2 0x85C JUMPI PUSH1 0x20 MUL DUP3 ADD SWAP2 SWAP1 PUSH1 0x0 MSTORE PUSH1 0x20 PUSH1 0x0 KECCAK256 SWAP1 JUMPDEST DUP2 SLOAD PUSH1 0x1 PUSH1 0x1 PUSH1 0xA0 SHL SUB AND DUP2 MSTORE PUSH1 0x1 SWAP1 SWAP2 ADD SWAP1 PUSH1 0x20 ADD DUP1 DUP4 GT PUSH2 0x83E JUMPI JUMPDEST POP POP POP POP POP DUP2 MSTORE PUSH1 0x20 ADD PUSH1 0x4 DUP3 ADD DUP1 SLOAD DUP1 PUSH1 0x20 MUL PUSH1 0x20 ADD PUSH1 0x40 MLOAD SWAP1 DUP2 ADD PUSH1 0x40 MSTORE DUP1 SWAP3 SWAP2 SWAP1 DUP2 DUP2 MSTORE PUSH1 0x20 ADD DUP3 DUP1 SLOAD DUP1 ISZERO PUSH2 0x8BE JUMPI PUSH1 0x20 MUL DUP3 ADD SWAP2 SWAP1 PUSH1 0x0 MSTORE PUSH1 0x20 PUSH1 0x0 KECCAK256 SWAP1 JUMPDEST DUP2 SLOAD PUSH1 0x1 PUSH1 0x1 PUSH1 0xA0 SHL SUB AND DUP2 MSTORE PUSH1 0x1 SWAP1 SWAP2 ADD SWAP1 PUSH1 0x20 ADD DUP1 DUP4 GT PUSH2 0x8A0 JUMPI JUMPDEST POP POP POP POP POP DUP2 MSTORE POP POP SWAP1 POP SWAP2 SWAP1 POP JUMP JUMPDEST PUSH1 0x0 DUP2 DUP2 MSTORE PUSH1 0x3 PUSH1 0x20 MSTORE PUSH1 0x40 DUP2 KECCAK256 PUSH1 0x1 DUP2 ADD SLOAD PUSH1 0x2 SWAP1 SWAP2 ADD SLOAD DUP1 ISZERO PUSH2 0x96D JUMPI PUSH1 0x0 DUP2 PUSH1 0x1 SLOAD PUSH2 0x8FD SWAP2 SWAP1 PUSH2 0xDBB JUMP JUMPDEST SWAP1 POP DUP3 DUP2 GT PUSH2 0x962 JUMPI PUSH1 0x0 DUP6 DUP2 MSTORE PUSH1 0x3 PUSH1 0x20 DUP2 SWAP1 MSTORE PUSH1 0x40 DUP3 KECCAK256 ADD DUP1 SLOAD SWAP2 SWAP1 PUSH2 0x926 PUSH1 0x1 DUP5 PUSH2 0xDD2 JUMP JUMPDEST DUP2 SLOAD DUP2 LT PUSH2 0x936 JUMPI PUSH2 0x936 PUSH2 0xDE5 JUMP JUMPDEST PUSH1 0x0 SWAP2 DUP3 MSTORE PUSH1 0x20 SWAP1 SWAP2 KECCAK256 ADD SLOAD PUSH1 0x1 PUSH1 0x1 PUSH1 0xA0 SHL SUB AND SWAP1 POP PUSH2 0x957 DUP8 DUP3 PUSH2 0x67A JUMP JUMPDEST PUSH1 0x1 SWAP6 POP POP POP PUSH2 0x967 JUMP JUMPDEST PUSH1 0x0 SWAP4 POP JUMPDEST POP PUSH2 0x972 JUMP JUMPDEST PUSH1 0x0 SWAP3 POP JUMPDEST POP POP SWAP2 SWAP1 POP JUMP JUMPDEST PUSH1 0x0 DUP1 JUMPDEST DUP4 SLOAD DUP2 LT ISZERO PUSH2 0xAA9 JUMPI DUP3 PUSH1 0x1 PUSH1 0x1 PUSH1 0xA0 SHL SUB AND DUP5 DUP3 DUP2 SLOAD DUP2 LT PUSH2 0x9A2 JUMPI PUSH2 0x9A2 PUSH2 0xDE5 JUMP JUMPDEST PUSH1 0x0 SWAP2 DUP3 MSTORE PUSH1 0x20 SWAP1 SWAP2 KECCAK256 ADD SLOAD PUSH1 0x1 PUSH1 0x1 PUSH1 0xA0 SHL SUB AND SUB PUSH2 0xA97 JUMPI DUP1 JUMPDEST DUP5 SLOAD PUSH2 0x9CC SWAP1 PUSH1 0x1 SWAP1 PUSH2 0xDD2 JUMP JUMPDEST DUP2 LT ISZERO PUSH2 0xA5A JUMPI DUP5 PUSH2 0x9DF DUP3 PUSH1 0x1 PUSH2 0xDFB JUMP JUMPDEST DUP2 SLOAD DUP2 LT PUSH2 0x9EF JUMPI PUSH2 0x9EF PUSH2 0xDE5 JUMP JUMPDEST SWAP1 PUSH1 0x0 MSTORE PUSH1 0x20 PUSH1 0x0 KECCAK256 ADD PUSH1 0x0 SWAP1 SLOAD SWAP1 PUSH2 0x100 EXP SWAP1 DIV PUSH1 0x1 PUSH1 0x1 PUSH1 0xA0 SHL SUB AND DUP6 DUP3 DUP2 SLOAD DUP2 LT PUSH2 0xA1F JUMPI PUSH2 0xA1F PUSH2 0xDE5 JUMP JUMPDEST PUSH1 0x0 SWAP2 DUP3 MSTORE PUSH1 0x20 SWAP1 SWAP2 KECCAK256 ADD DUP1 SLOAD PUSH1 0x1 PUSH1 0x1 PUSH1 0xA0 SHL SUB NOT AND PUSH1 0x1 PUSH1 0x1 PUSH1 0xA0 SHL SUB SWAP3 SWAP1 SWAP3 AND SWAP2 SWAP1 SWAP2 OR SWAP1 SSTORE DUP1 PUSH2 0xA52 DUP2 PUSH2 0xDA2 JUMP JUMPDEST SWAP2 POP POP PUSH2 0x9BE JUMP JUMPDEST POP DUP4 DUP1 SLOAD DUP1 PUSH2 0xA6B JUMPI PUSH2 0xA6B PUSH2 0xE0E JUMP JUMPDEST PUSH1 0x0 DUP3 DUP2 MSTORE PUSH1 0x20 SWAP1 KECCAK256 DUP2 ADD PUSH1 0x0 NOT SWAP1 DUP2 ADD DUP1 SLOAD PUSH1 0x1 PUSH1 0x1 PUSH1 0xA0 SHL SUB NOT AND SWAP1 SSTORE ADD SWAP1 SSTORE POP PUSH1 0x1 SWAP1 POP PUSH2 0xAAF JUMP JUMPDEST DUP1 PUSH2 0xAA1 DUP2 PUSH2 0xDA2 JUMP JUMPDEST SWAP2 POP POP PUSH2 0x97D JUMP JUMPDEST POP PUSH1 0x0 SWAP1 POP JUMPDEST SWAP3 SWAP2 POP POP JUMP JUMPDEST PUSH1 0x0 DUP1 JUMPDEST DUP4 SLOAD DUP2 LT ISZERO PUSH2 0xAA9 JUMPI DUP3 DUP5 DUP3 DUP2 SLOAD DUP2 LT PUSH2 0xAD5 JUMPI PUSH2 0xAD5 PUSH2 0xDE5 JUMP JUMPDEST SWAP1 PUSH1 0x0 MSTORE PUSH1 0x20 PUSH1 0x0 KECCAK256 ADD SLOAD SUB PUSH2 0xB84 JUMPI DUP1 JUMPDEST DUP5 SLOAD PUSH2 0xAF5 SWAP1 PUSH1 0x1 SWAP1 PUSH2 0xDD2 JUMP JUMPDEST DUP2 LT ISZERO PUSH2 0xB53 JUMPI DUP5 PUSH2 0xB08 DUP3 PUSH1 0x1 PUSH2 0xDFB JUMP JUMPDEST DUP2 SLOAD DUP2 LT PUSH2 0xB18 JUMPI PUSH2 0xB18 PUSH2 0xDE5 JUMP JUMPDEST SWAP1 PUSH1 0x0 MSTORE PUSH1 0x20 PUSH1 0x0 KECCAK256 ADD SLOAD DUP6 DUP3 DUP2 SLOAD DUP2 LT PUSH2 0xB35 JUMPI PUSH2 0xB35 PUSH2 0xDE5 JUMP JUMPDEST PUSH1 0x0 SWAP2 DUP3 MSTORE PUSH1 0x20 SWAP1 SWAP2 KECCAK256 ADD SSTORE DUP1 PUSH2 0xB4B DUP2 PUSH2 0xDA2 JUMP JUMPDEST SWAP2 POP POP PUSH2 0xAE7 JUMP JUMPDEST POP DUP4 DUP1 SLOAD DUP1 PUSH2 0xB64 JUMPI PUSH2 0xB64 PUSH2 0xE0E JUMP JUMPDEST PUSH1 0x1 SWAP1 SUB DUP2 DUP2 SWAP1 PUSH1 0x0 MSTORE PUSH1 0x20 PUSH1 0x0 KECCAK256 ADD PUSH1 0x0 SWAP1 SSTORE SWAP1 SSTORE PUSH1 0x1 SWAP2 POP POP PUSH2 0xAAF JUMP JUMPDEST DUP1 PUSH2 0xB8E DUP2 PUSH2 0xDA2 JUMP JUMPDEST SWAP2 POP POP PUSH2 0xAB9 JUMP JUMPDEST DUP1 CALLDATALOAD PUSH1 0x1 PUSH1 0x1 PUSH1 0xA0 SHL SUB DUP2 AND DUP2 EQ PUSH2 0xBAD JUMPI PUSH1 0x0 DUP1 REVERT JUMPDEST SWAP2 SWAP1 POP JUMP JUMPDEST PUSH1 0x0 DUP1 PUSH1 0x40 DUP4 DUP6 SUB SLT ISZERO PUSH2 0xBC5 JUMPI PUSH1 0x0 DUP1 REVERT JUMPDEST DUP3 CALLDATALOAD SWAP2 POP PUSH2 0xBD5 PUSH1 0x20 DUP5 ADD PUSH2 0xB96 JUMP JUMPDEST SWAP1 POP SWAP3 POP SWAP3 SWAP1 POP JUMP JUMPDEST PUSH1 0x0 PUSH1 0x20 DUP3 DUP5 SUB SLT ISZERO PUSH2 0xBF0 JUMPI PUSH1 0x0 DUP1 REVERT JUMPDEST POP CALLDATALOAD SWAP2 SWAP1 POP JUMP JUMPDEST PUSH1 0x0 PUSH1 0x20 DUP3 DUP5 SUB SLT ISZERO PUSH2 0xC09 JUMPI PUSH1 0x0 DUP1 REVERT JUMPDEST PUSH2 0xC12 DUP3 PUSH2 0xB96 JUMP JUMPDEST SWAP4 SWAP3 POP POP POP JUMP JUMPDEST DUP1 MLOAD PUSH1 0x40 DUP1 DUP5 MSTORE DUP2 MLOAD SWAP1 DUP5 ADD DUP2 SWAP1 MSTORE PUSH1 0x0 SWAP2 PUSH1 0x20 SWAP2 SWAP1 DUP3 ADD SWAP1 PUSH1 0x60 DUP7 ADD SWAP1 DUP5 JUMPDEST DUP2 DUP2 LT ISZERO PUSH2 0xC55 JUMPI DUP4 MLOAD DUP4 MSTORE SWAP3 DUP5 ADD SWAP3 SWAP2 DUP5 ADD SWAP2 PUSH1 0x1 ADD PUSH2 0xC39 JUMP JUMPDEST POP POP SWAP4 DUP3 ADD MLOAD PUSH1 0x1 PUSH1 0x1 PUSH1 0xA0 SHL SUB AND SWAP5 SWAP1 SWAP2 ADD SWAP4 SWAP1 SWAP4 MSTORE POP SWAP2 SWAP1 POP JUMP JUMPDEST PUSH1 0x20 DUP2 MSTORE PUSH1 0x0 PUSH2 0xC12 PUSH1 0x20 DUP4 ADD DUP5 PUSH2 0xC19 JUMP JUMPDEST PUSH1 0x0 DUP1 PUSH1 0x40 DUP4 DUP6 SUB SLT ISZERO PUSH2 0xC98 JUMPI PUSH1 0x0 DUP1 REVERT JUMPDEST PUSH2 0xCA1 DUP4 PUSH2 0xB96 JUMP JUMPDEST SWAP5 PUSH1 0x20 SWAP4 SWAP1 SWAP4 ADD CALLDATALOAD SWAP4 POP POP POP JUMP JUMPDEST PUSH1 0x0 DUP2 MLOAD DUP1 DUP5 MSTORE PUSH1 0x20 DUP1 DUP6 ADD SWAP5 POP DUP1 DUP5 ADD PUSH1 0x0 JUMPDEST DUP4 DUP2 LT ISZERO PUSH2 0xCE8 JUMPI DUP2 MLOAD PUSH1 0x1 PUSH1 0x1 PUSH1 0xA0 SHL SUB AND DUP8 MSTORE SWAP6 DUP3 ADD SWAP6 SWAP1 DUP3 ADD SWAP1 PUSH1 0x1 ADD PUSH2 0xCC3 JUMP JUMPDEST POP SWAP5 SWAP6 SWAP5 POP POP POP POP POP JUMP JUMPDEST PUSH1 0x20 DUP2 MSTORE DUP2 MLOAD PUSH1 0x20 DUP3 ADD MSTORE PUSH1 0x20 DUP3 ADD MLOAD PUSH1 0x40 DUP3 ADD MSTORE PUSH1 0x40 DUP3 ADD MLOAD PUSH1 0x60 DUP3 ADD MSTORE PUSH1 0x0 PUSH1 0x60 DUP4 ADD MLOAD PUSH1 0xA0 PUSH1 0x80 DUP5 ADD MSTORE PUSH2 0xD2D PUSH1 0xC0 DUP5 ADD DUP3 PUSH2 0xCAF JUMP JUMPDEST SWAP1 POP PUSH1 0x80 DUP5 ADD MLOAD PUSH1 0x1F NOT DUP5 DUP4 SUB ADD PUSH1 0xA0 DUP6 ADD MSTORE PUSH2 0xD4A DUP3 DUP3 PUSH2 0xCAF JUMP JUMPDEST SWAP6 SWAP5 POP POP POP POP POP JUMP JUMPDEST PUSH4 0x4E487B71 PUSH1 0xE0 SHL PUSH1 0x0 MSTORE PUSH1 0x11 PUSH1 0x4 MSTORE PUSH1 0x24 PUSH1 0x0 REVERT JUMPDEST PUSH1 0x0 DUP2 PUSH2 0xD78 JUMPI PUSH2 0xD78 PUSH2 0xD53 JUMP JUMPDEST POP PUSH1 0x0 NOT ADD SWAP1 JUMP JUMPDEST PUSH1 0x0 DUP3 PUSH2 0xD9D JUMPI PUSH4 0x4E487B71 PUSH1 0xE0 SHL PUSH1 0x0 MSTORE PUSH1 0x12 PUSH1 0x4 MSTORE PUSH1 0x24 PUSH1 0x0 REVERT JUMPDEST POP DIV SWAP1 JUMP JUMPDEST PUSH1 0x0 PUSH1 0x1 DUP3 ADD PUSH2 0xDB4 JUMPI PUSH2 0xDB4 PUSH2 0xD53 JUMP JUMPDEST POP PUSH1 0x1 ADD SWAP1 JUMP JUMPDEST DUP1 DUP3 MUL DUP2 ISZERO DUP3 DUP3 DIV DUP5 EQ OR PUSH2 0xAAF JUMPI PUSH2 0xAAF PUSH2 0xD53 JUMP JUMPDEST DUP2 DUP2 SUB DUP2 DUP2 GT ISZERO PUSH2 0xAAF JUMPI PUSH2 0xAAF PUSH2 0xD53 JUMP JUMPDEST PUSH4 0x4E487B71 PUSH1 0xE0 SHL PUSH1 0x0 MSTORE PUSH1 0x32 PUSH1 0x4 MSTORE PUSH1 0x24 PUSH1 0x0 REVERT JUMPDEST DUP1 DUP3 ADD DUP1 DUP3 GT ISZERO PUSH2 0xAAF JUMPI PUSH2 0xAAF PUSH2 0xD53 JUMP JUMPDEST PUSH4 0x4E487B71 PUSH1 0xE0 SHL PUSH1 0x0 MSTORE PUSH1 0x31 PUSH1 0x4 MSTORE PUSH1 0x24 PUSH1 0x0 REVERT INVALID LOG2 PUSH5 0x6970667358 0x22 SLT KECCAK256 0xC4 SWAP13 0xC9 0x1F 0xBB 0xE2 0xE9 CALLDATASIZE 0x1E 0xD1 SWAP2 0x5C 0xDB PUSH13 0x35D16DCD245510904667090DE7 SLOAD 0x1E CALLDATALOAD LT 0xB1 PUSH5 0x736F6C6343 STOP ADDMOD GT STOP CALLER "
		},
		"gasEstimates": {
			"creation": {
				"codeDepositCost": "734800",
				"executionCost": "766",
				"totalCost": "735566"
			},
			"external": {
				"addMembers(address,uint256)": "143985",
				"addWarden(address,uint256)": "101955",
				"becomeWarden(uint256)": "infinite",
				"categoryDetails(uint256)": "6781",
				"categoryReader(uint256)": "infinite",
				"changeRate(uint256)": "22379",
				"memberDetails(address)": "2587",
				"memberReader(address)": "infinite",
				"removeMembers(uint256,address)": "infinite",
				"removeWarden(uint256,address)": "infinite",
				"updateWardens(uint256)": "infinite",
				"wardenCount()": "2330",
				"wardenDetails(address)": "2631",
				"wardenRate()": "2306",
				"wardenReader(address)": "infinite"
			},
			"internal": {
				"removeAddress(address[] storage pointer,address)": "infinite",
				"removeItem(uint256[] storage pointer,uint256)": "infinite"
			}
		},
		"methodIdentifiers": {
			"addMembers(address,uint256)": "e1312e96",
			"addWarden(address,uint256)": "a1fae406",
			"becomeWarden(uint256)": "5a0c948e",
			"categoryDetails(uint256)": "1fae28b7",
			"categoryReader(uint256)": "f260ead7",
			"changeRate(uint256)": "74e7493b",
			"memberDetails(address)": "9d3b7cc9",
			"memberReader(address)": "4d5f8fa8",
			"removeMembers(uint256,address)": "033421b1",
			"removeWarden(uint256,address)": "cfec0b16",
			"updateWardens(uint256)": "f2b2dd47",
			"wardenCount()": "06ee80ac",
			"wardenDetails(address)": "baa0c3eb",
			"wardenRate()": "d3893c9a",
			"wardenReader(address)": "890bbbc1"
		}
	},
	"abi": [
		{
			"inputs": [
				{
					"internalType": "address",
					"name": "_add",
					"type": "address"
				},
				{
					"internalType": "uint256",
					"name": "cid",
					"type": "uint256"
				}
			],
			"name": "addMembers",
			"outputs": [],
			"stateMutability": "nonpayable",
			"type": "function"
		},
		{
			"inputs": [
				{
					"internalType": "address",
					"name": "_add",
					"type": "address"
				},
				{
					"internalType": "uint256",
					"name": "cid",
					"type": "uint256"
				}
			],
			"name": "addWarden",
			"outputs": [],
			"stateMutability": "nonpayable",
			"type": "function"
		},
		{
			"inputs": [
				{
					"internalType": "uint256",
					"name": "communityId",
					"type": "uint256"
				}
			],
			"name": "becomeWarden",
			"outputs": [],
			"stateMutability": "nonpayable",
			"type": "function"
		},
		{
			"inputs": [
				{
					"internalType": "uint256",
					"name": "",
					"type": "uint256"
				}
			],
			"name": "categoryDetails",
			"outputs": [
				{
					"internalType": "uint256",
					"name": "cId",
					"type": "uint256"
				},
				{
					"internalType": "uint256",
					"name": "memberCount",
					"type": "uint256"
				},
				{
					"internalType": "uint256",
					"name": "wardenCount",
					"type": "uint256"
				}
			],
			"stateMutability": "view",
			"type": "function"
		},
		{
			"inputs": [
				{
					"internalType": "uint256",
					"name": "cat",
					"type": "uint256"
				}
			],
			"name": "categoryReader",
			"outputs": [
				{
					"components": [
						{
							"internalType": "uint256",
							"name": "cId",
							"type": "uint256"
						},
						{
							"internalType": "uint256",
							"name": "memberCount",
							"type": "uint256"
						},
						{
							"internalType": "uint256",
							"name": "wardenCount",
							"type": "uint256"
						},
						{
							"internalType": "address[]",
							"name": "communityMembers",
							"type": "address[]"
						},
						{
							"internalType": "address[]",
							"name": "communityWardens",
							"type": "address[]"
						}
					],
					"internalType": "struct Vote.Categories",
					"name": "__",
					"type": "tuple"
				}
			],
			"stateMutability": "view",
			"type": "function"
		},
		{
			"inputs": [
				{
					"internalType": "uint256",
					"name": "_wardenRate",
					"type": "uint256"
				}
			],
			"name": "changeRate",
			"outputs": [],
			"stateMutability": "nonpayable",
			"type": "function"
		},
		{
			"inputs": [
				{
					"internalType": "address",
					"name": "",
					"type": "address"
				}
			],
			"name": "memberDetails",
			"outputs": [
				{
					"internalType": "address",
					"name": "memberAddress",
					"type": "address"
				}
			],
			"stateMutability": "view",
			"type": "function"
		},
		{
			"inputs": [
				{
					"internalType": "address",
					"name": "_add",
					"type": "address"
				}
			],
			"name": "memberReader",
			"outputs": [
				{
					"components": [
						{
							"internalType": "uint256[]",
							"name": "cId",
							"type": "uint256[]"
						},
						{
							"internalType": "address",
							"name": "memberAddress",
							"type": "address"
						}
					],
					"internalType": "struct Vote.Members",
					"name": "__",
					"type": "tuple"
				}
			],
			"stateMutability": "view",
			"type": "function"
		},
		{
			"inputs": [
				{
					"internalType": "uint256",
					"name": "cid",
					"type": "uint256"
				},
				{
					"internalType": "address",
					"name": "_member",
					"type": "address"
				}
			],
			"name": "removeMembers",
			"outputs": [],
			"stateMutability": "nonpayable",
			"type": "function"
		},
		{
			"inputs": [
				{
					"internalType": "uint256",
					"name": "communityId",
					"type": "uint256"
				},
				{
					"internalType": "address",
					"name": "wardenAddress",
					"type": "address"
				}
			],
			"name": "removeWarden",
			"outputs": [],
			"stateMutability": "nonpayable",
			"type": "function"
		},
		{
			"inputs": [
				{
					"internalType": "uint256",
					"name": "communityId",
					"type": "uint256"
				}
			],
			"name": "updateWardens",
			"outputs": [
				{
					"internalType": "bool",
					"name": "isValid",
					"type": "bool"
				}
			],
			"stateMutability": "nonpayable",
			"type": "function"
		},
		{
			"inputs": [],
			"name": "wardenCount",
			"outputs": [
				{
					"internalType": "uint256",
					"name": "",
					"type": "uint256"
				}
			],
			"stateMutability": "view",
			"type": "function"
		},
		{
			"inputs": [
				{
					"internalType": "address",
					"name": "",
					"type": "address"
				}
			],
			"name": "wardenDetails",
			"outputs": [
				{
					"internalType": "address",
					"name": "wardenAddress",
					"type": "address"
				}
			],
			"stateMutability": "view",
			"type": "function"
		},
		{
			"inputs": [],
			"name": "wardenRate",
			"outputs": [
				{
					"internalType": "uint256",
					"name": "",
					"type": "uint256"
				}
			],
			"stateMutability": "view",
			"type": "function"
		},
		{
			"inputs": [
				{
					"internalType": "address",
					"name": "_add",
					"type": "address"
				}
			],
			"name": "wardenReader",
			"outputs": [
				{
					"components": [
						{
							"internalType": "uint256[]",
							"name": "cId",
							"type": "uint256[]"
						},
						{
							"internalType": "address",
							"name": "wardenAddress",
							"type": "address"
						}
					],
					"internalType": "struct Vote.Wardens",
					"name": "__",
					"type": "tuple"
				}
			],
			"stateMutability": "view",
			"type": "function"
		}
	]
}